******************************************************************************
                  TI ARM Linker PC v5.2.2                      
******************************************************************************
>> Linked Wed Nov 18 23:13:28 2015

OUTPUT FILE NAME:   <Test_SpeedControl.out>
ENTRY POINT SYMBOL: "_c_int00"  address: 00000e49


MEMORY CONFIGURATION

         name            origin    length      used     unused   attr    fill
----------------------  --------  ---------  --------  --------  ----  --------
  FLASH                 00000000   00040000  000014e6  0003eb1a  R  X
  SRAM                  20000000   00008000  000004f0  00007b10  RW X


SEGMENT ALLOCATION MAP

run origin  load origin   length   init length attrs members
----------  ----------- ---------- ----------- ----- -------
00000000    00000000    000014e8   000014e8    r-x
  00000000    00000000    0000026c   0000026c    r-- .intvecs
  0000026c    0000026c    0000107a   0000107a    r-x .text
  000012e8    000012e8    000001a0   000001a0    r-- .const
  00001488    00001488    00000060   00000060    r-- .cinit
20000000    20000000    000004f0   00000000    rw-
  20000000    20000000    0000026c   00000000    rw- .vtable
  2000026c    2000026c    00000200   00000000    rw- .stack
  2000046c    2000046c    0000007c   00000000    rw- .data
  200004e8    200004e8    00000008   00000000    rw- .bss


SECTION ALLOCATION MAP

 output                                  attributes/
section   page    origin      length       input sections
--------  ----  ----------  ----------   ----------------
.intvecs   0    00000000    0000026c     
                  00000000    0000026c     tm4c123gh6pm_startup_ccs.obj (.intvecs)

.text      0    0000026c    0000107a     
                  0000026c    000003a0     Speed_Control.obj (.text)
                  0000060c    00000320     drv8833.obj (.text)
                  0000092c    00000130     driverlib.lib : gpio.obj (.text:GPIOPadConfigSet)
                  00000a5c    000000f0                   : sysctl.obj (.text:SysCtlClockSet)
                  00000b4c    0000009c     rtsv7M4_T_le_v4SPD16_eabi.lib : memcpy_t2.obj (.text)
                  00000be8    0000007a                                   : memset_t2.obj (.text)
                  00000c62    00000002     --HOLE-- [fill = 0]
                  00000c64    0000006c                                   : autoinit.obj (.text)
                  00000cd0    0000006a                                   : copy_decompress_rle.obj (.text)
                  00000d3a    00000002     --HOLE-- [fill = 0]
                  00000d3c    00000060     driverlib.lib : interrupt.obj (.text:IntEnable)
                  00000d9c    0000005c                   : timer.obj (.text:TimerConfigure)
                  00000df8    00000050     Template2_init.obj (.text)
                  00000e48    00000050     rtsv7M4_T_le_v4SPD16_eabi.lib : boot.obj (.text)
                  00000e98    0000004c     driverlib.lib : timer.obj (.text:_TimerIntNumberGet)
                  00000ee4    0000004c     rtsv7M4_T_le_v4SPD16_eabi.lib : cpy_tbl.obj (.text)
                  00000f30    00000048     driverlib.lib : gpio.obj (.text:GPIOPinConfigure)
                  00000f78    00000044     rtsv7M4_T_le_v4SPD16_eabi.lib : exit.obj (.text)
                  00000fbc    00000036     driverlib.lib : pwm.obj (.text:PWMOutputUpdateMode)
                  00000ff2    00000002     --HOLE-- [fill = 0]
                  00000ff4    00000034                   : interrupt.obj (.text:IntRegister)
                  00001028    00000034                   : sysctl.obj (.text:SysCtlPeripheralEnable)
                  0000105c    00000034                   : sysctl.obj (.text:SysCtlPeripheralReady)
                  00001090    00000030     main.obj (.text)
                  000010c0    0000002a     driverlib.lib : gpio.obj (.text:GPIODirModeSet)
                  000010ea    00000022                   : pwm.obj (.text:PWMGenConfigure)
                  0000110c    0000001e                   : pwm.obj (.text:PWMPulseWidthSet)
                  0000112a    00000002     --HOLE-- [fill = 0]
                  0000112c    0000001c     tm4c123gh6pm_startup_ccs.obj (.text)
                  00001148    00000018     driverlib.lib : timer.obj (.text:TimerIntRegister)
                  00001160    00000018     rtsv7M4_T_le_v4SPD16_eabi.lib : args_main.obj (.text)
                  00001178    00000014     driverlib.lib : pwm.obj (.text:PWMClockSet)
                  0000118c    00000014                   : systick.obj (.text:SysTickEnable)
                  000011a0    00000014                   : systick.obj (.text:SysTickIntEnable)
                  000011b4    00000014     rtsv7M4_T_le_v4SPD16_eabi.lib : _lock.obj (.text)
                  000011c8    00000012     driverlib.lib : gpio.obj (.text:GPIOPinTypePWM)
                  000011da    00000012                   : gpio.obj (.text:GPIOPinTypeQEI)
                  000011ec    00000012                   : pwm.obj (.text:PWMOutputState)
                  000011fe    00000012                   : timer.obj (.text:TimerLoadSet)
                  00001210    00000010                   : pwm.obj (.text:PWMGenPeriodSet)
                  00001220    00000010                   : qei.obj (.text:QEIVelocityConfigure)
                  00001230    00000010                   : systick.obj (.text:SysTickPeriodSet)
                  00001240    0000000e                   : qei.obj (.text:QEIConfigure)
                  0000124e    0000000e                   : qei.obj (.text:QEIDirectionGet)
                  0000125c    0000000e                   : timer.obj (.text:TimerEnable)
                  0000126a    0000000e     rtsv7M4_T_le_v4SPD16_eabi.lib : copy_decompress_none.obj (.text:decompress:none)
                  00001278    0000000c     driverlib.lib : pwm.obj (.text:PWMGenEnable)
                  00001284    0000000c     rtsv7M4_T_le_v4SPD16_eabi.lib : copy_zero_init.obj (.text:decompress:ZI)
                  00001290    0000000a     driverlib.lib : qei.obj (.text:QEIDisable)
                  0000129a    0000000a                   : qei.obj (.text:QEIEnable)
                  000012a4    0000000a                   : qei.obj (.text:QEIIntDisable)
                  000012ae    0000000a                   : qei.obj (.text:QEIVelocityEnable)
                  000012b8    0000000a                   : timer.obj (.text:TimerIntStatus)
                  000012c2    00000008                   : timer.obj (.text:TimerIntEnable)
                  000012ca    00000006                   : sysctl.obj (.text:SysCtlDelay)
                  000012d0    00000006     rtsv7M4_T_le_v4SPD16_eabi.lib : copy_decompress_rle.obj (.text:decompress:rle24)
                  000012d6    00000004     driverlib.lib : qei.obj (.text:QEIPositionSet)
                  000012da    00000004                   : qei.obj (.text:QEIVelocityGet)
                  000012de    00000004                   : timer.obj (.text:TimerIntClear)
                  000012e2    00000004     rtsv7M4_T_le_v4SPD16_eabi.lib : pre_init.obj (.text)

.const     0    000012e8    000001a0     
                  000012e8    00000090     driverlib.lib : gpio.obj (.const:g_pui32GPIOBaseAddrs)
                  00001378    00000070                   : interrupt.obj (.const)
                  000013e8    00000060                   : timer.obj (.const:g_ppui32TimerIntMap)
                  00001448    00000040                   : timer.obj (.const:g_ppui32TimerIntMapSnowflake)

.cinit     0    00001488    00000060     
                  00001488    00000027     (.cinit..data.load) [load image, compression = rle]
                  000014af    00000001     --HOLE-- [fill = 0]
                  000014b0    0000000c     (__TI_handler_table)
                  000014bc    00000004     --HOLE-- [fill = 0]
                  000014c0    00000008     (.cinit..bss.load) [load image, compression = zero_init]
                  000014c8    00000008     (.cinit..vtable.load) [load image, compression = zero_init]
                  000014d0    00000018     (__TI_cinit_table)

.init_array 
*          0    00000000    00000000     UNINITIALIZED

.vtable    0    20000000    0000026c     UNINITIALIZED
                  20000000    0000026c     driverlib.lib : interrupt.obj (.vtable)

.stack     0    2000026c    00000200     UNINITIALIZED
                  2000026c    00000200     --HOLE--

.data      0    2000046c    0000007c     UNINITIALIZED
                  2000046c    00000058     Speed_Control.obj (.data)
                  200004c4    00000008     main.obj (.data)
                  200004cc    00000008     rtsv7M4_T_le_v4SPD16_eabi.lib : _lock.obj (.data)
                  200004d4    00000008                                   : exit.obj (.data)
                  200004dc    00000004     drv8833.obj (.data)
                  200004e0    00000004     rtsv7M4_T_le_v4SPD16_eabi.lib : stkdepth_vars.obj (.data)
                  200004e4    00000004     tm4c123gh6pm_startup_ccs.obj (.data)

.bss       0    200004e8    00000008     UNINITIALIZED
                  200004e8    00000004     (.common:EncoderDirVel)
                  200004ec    00000004     (.common:EncoderEsqVel)

.TI.persistent 
*          0    2000046c    00000000     UNINITIALIZED

.TI.noinit 
*          0    200004e8    00000000     UNINITIALIZED


LINKER GENERATED COPY TABLES

__TI_cinit_table @ 000014d0 records: 3, size/record: 8, table size: 24
	.data: load addr=00001488, load size=00000027 bytes, run addr=2000046c, run size=0000007c bytes, compression=rle
	.bss: load addr=000014c0, load size=00000008 bytes, run addr=200004e8, run size=00000008 bytes, compression=zero_init
	.vtable: load addr=000014c8, load size=00000008 bytes, run addr=20000000, run size=0000026c bytes, compression=zero_init


LINKER GENERATED HANDLER TABLE

__TI_handler_table @ 000014b0 records: 3, size/record: 4, table size: 12
	index: 0, handler: __TI_zero_init
	index: 1, handler: __TI_decompress_rle24
	index: 2, handler: __TI_decompress_none


GLOBAL SYMBOLS: SORTED ALPHABETICALLY BY Name 

address   name                    
-------   ----                    
00000f79  C$$EXIT                 
0000060d  DRV8833_InitMotorA      
000006c3  DRV8833_InitMotorB      
00000783  DRV8833_InitMotorsAB    
0000078f  DRV8833_MotorA          
00000841  DRV8833_MotorB          
000008ef  DRV8833_MotorsDuty      
2000048c  D_Dir                   
200004b4  D_Esq                   
200004bc  Direction_Dir           
200004c0  Direction_Esq           
200004e8  EncoderDirVel           
200004ec  EncoderEsqVel           
20000470  Error_Dir               
20000498  Error_Esq               
000010c1  GPIODirModeSet          
0000092d  GPIOPadConfigSet        
00000f31  GPIOPinConfigure        
000011c9  GPIOPinTypePWM          
000011db  GPIOPinTypeQEI          
20000488  I_Dir                   
200004b0  I_Esq                   
00000d3d  IntEnable               
00000ff5  IntRegister             
20000480  Kd_Dir                  
200004a8  Kd_Esq                  
2000047c  Ki_Dir                  
200004a4  Ki_Esq                  
20000478  Kp_Dir                  
200004a0  Kp_Esq                  
20000474  LastError_Dir           
2000049c  LastError_Esq           
20000490  PID_Dir                 
200004b8  PID_Esq                 
00001179  PWMClockSet             
000010eb  PWMGenConfigure         
00001279  PWMGenEnable            
00001211  PWMGenPeriodSet         
000011ed  PWMOutputState          
00000fbd  PWMOutputUpdateMode     
0000110d  PWMPulseWidthSet        
20000484  P_Dir                   
200004ac  P_Esq                   
00001241  QEIConfigure            
0000124f  QEIDirectionGet         
00001291  QEIDisable              
0000129b  QEIEnable               
000012a5  QEIIntDisable           
000012d7  QEIPositionSet          
00001221  QEIVelocityConfigure    
000012af  QEIVelocityEnable       
000012db  QEIVelocityGet          
00001137  ResetISR                
UNDEFED   SHT$$INIT_ARRAY$$Base   
UNDEFED   SHT$$INIT_ARRAY$$Limit  
00000505  SpeedControl_Init       
00000515  SpeedControl_Set        
0000112d  SycTickInt              
00000a5d  SysCtlClockSet          
000012cb  SysCtlDelay             
00001029  SysCtlPeripheralEnable  
0000105d  SysCtlPeripheralReady   
0000118d  SysTickEnable           
000011a1  SysTickIntEnable        
00001231  SysTickPeriodSet        
2000046c  Target_Dir              
20000494  Target_Esq              
00000e11  Template2_Init          
00000d9d  TimerConfigure          
0000125d  TimerEnable             
000012df  TimerIntClear           
000012c3  TimerIntEnable          
00001149  TimerIntRegister        
000012b9  TimerIntStatus          
000011ff  TimerLoadSet            
0000026d  UpdateSpeed_ISR         
00000e1f  Wait                    
00000431  _EncoderInit            
000003ef  _InitTimer              
00000df9  _SysTickbegin           
2000046c  __STACK_END             
00000200  __STACK_SIZE            
2000046c  __STACK_TOP             
000014d0  __TI_CINIT_Base         
000014e8  __TI_CINIT_Limit        
000014b0  __TI_Handler_Table_Base 
000014bc  __TI_Handler_Table_Limit
00000c65  __TI_auto_init          
200004d4  __TI_cleanup_ptr        
0000126b  __TI_decompress_none    
000012d1  __TI_decompress_rle24   
200004d8  __TI_dtors_ptr          
00000000  __TI_static_base__      
00001285  __TI_zero_init          
00000be9  __aeabi_memclr          
00000be9  __aeabi_memclr4         
00000be9  __aeabi_memclr8         
00000b4d  __aeabi_memcpy          
00000b4d  __aeabi_memcpy4         
00000b4d  __aeabi_memcpy8         
00000beb  __aeabi_memset          
00000beb  __aeabi_memset4         
00000beb  __aeabi_memset8         
ffffffff  __binit__               
ffffffff  __c_args__              
2000026c  __stack                 
00001161  _args_main              
00000e49  _c_int00                
200004cc  _lock                   
000011c3  _nop                    
000011bb  _register_lock          
000011b5  _register_unlock        
000012e3  _system_pre_init        
200004d0  _unlock                 
00000f7d  abort                   
ffffffff  binit                   
00000ee5  copy_in                 
00000f85  exit                    
200004dc  freq                    
20000000  g_pfnRAMVectors         
00000000  g_pfnVectors            
00001091  main                    
200004e0  main_func_sp            
00000b4d  memcpy                  
00000bf1  memset                  
200004e4  millis                  
200004c4  speedA                  
200004c8  speedB                  


GLOBAL SYMBOLS: SORTED BY Symbol Address 

address   name                    
-------   ----                    
00000000  __TI_static_base__      
00000000  g_pfnVectors            
00000200  __STACK_SIZE            
0000026d  UpdateSpeed_ISR         
000003ef  _InitTimer              
00000431  _EncoderInit            
00000505  SpeedControl_Init       
00000515  SpeedControl_Set        
0000060d  DRV8833_InitMotorA      
000006c3  DRV8833_InitMotorB      
00000783  DRV8833_InitMotorsAB    
0000078f  DRV8833_MotorA          
00000841  DRV8833_MotorB          
000008ef  DRV8833_MotorsDuty      
0000092d  GPIOPadConfigSet        
00000a5d  SysCtlClockSet          
00000b4d  __aeabi_memcpy          
00000b4d  __aeabi_memcpy4         
00000b4d  __aeabi_memcpy8         
00000b4d  memcpy                  
00000be9  __aeabi_memclr          
00000be9  __aeabi_memclr4         
00000be9  __aeabi_memclr8         
00000beb  __aeabi_memset          
00000beb  __aeabi_memset4         
00000beb  __aeabi_memset8         
00000bf1  memset                  
00000c65  __TI_auto_init          
00000d3d  IntEnable               
00000d9d  TimerConfigure          
00000df9  _SysTickbegin           
00000e11  Template2_Init          
00000e1f  Wait                    
00000e49  _c_int00                
00000ee5  copy_in                 
00000f31  GPIOPinConfigure        
00000f79  C$$EXIT                 
00000f7d  abort                   
00000f85  exit                    
00000fbd  PWMOutputUpdateMode     
00000ff5  IntRegister             
00001029  SysCtlPeripheralEnable  
0000105d  SysCtlPeripheralReady   
00001091  main                    
000010c1  GPIODirModeSet          
000010eb  PWMGenConfigure         
0000110d  PWMPulseWidthSet        
0000112d  SycTickInt              
00001137  ResetISR                
00001149  TimerIntRegister        
00001161  _args_main              
00001179  PWMClockSet             
0000118d  SysTickEnable           
000011a1  SysTickIntEnable        
000011b5  _register_unlock        
000011bb  _register_lock          
000011c3  _nop                    
000011c9  GPIOPinTypePWM          
000011db  GPIOPinTypeQEI          
000011ed  PWMOutputState          
000011ff  TimerLoadSet            
00001211  PWMGenPeriodSet         
00001221  QEIVelocityConfigure    
00001231  SysTickPeriodSet        
00001241  QEIConfigure            
0000124f  QEIDirectionGet         
0000125d  TimerEnable             
0000126b  __TI_decompress_none    
00001279  PWMGenEnable            
00001285  __TI_zero_init          
00001291  QEIDisable              
0000129b  QEIEnable               
000012a5  QEIIntDisable           
000012af  QEIVelocityEnable       
000012b9  TimerIntStatus          
000012c3  TimerIntEnable          
000012cb  SysCtlDelay             
000012d1  __TI_decompress_rle24   
000012d7  QEIPositionSet          
000012db  QEIVelocityGet          
000012df  TimerIntClear           
000012e3  _system_pre_init        
000014b0  __TI_Handler_Table_Base 
000014bc  __TI_Handler_Table_Limit
000014d0  __TI_CINIT_Base         
000014e8  __TI_CINIT_Limit        
20000000  g_pfnRAMVectors         
2000026c  __stack                 
2000046c  Target_Dir              
2000046c  __STACK_END             
2000046c  __STACK_TOP             
20000470  Error_Dir               
20000474  LastError_Dir           
20000478  Kp_Dir                  
2000047c  Ki_Dir                  
20000480  Kd_Dir                  
20000484  P_Dir                   
20000488  I_Dir                   
2000048c  D_Dir                   
20000490  PID_Dir                 
20000494  Target_Esq              
20000498  Error_Esq               
2000049c  LastError_Esq           
200004a0  Kp_Esq                  
200004a4  Ki_Esq                  
200004a8  Kd_Esq                  
200004ac  P_Esq                   
200004b0  I_Esq                   
200004b4  D_Esq                   
200004b8  PID_Esq                 
200004bc  Direction_Dir           
200004c0  Direction_Esq           
200004c4  speedA                  
200004c8  speedB                  
200004cc  _lock                   
200004d0  _unlock                 
200004d4  __TI_cleanup_ptr        
200004d8  __TI_dtors_ptr          
200004dc  freq                    
200004e0  main_func_sp            
200004e4  millis                  
200004e8  EncoderDirVel           
200004ec  EncoderEsqVel           
ffffffff  __binit__               
ffffffff  __c_args__              
ffffffff  binit                   
UNDEFED   SHT$$INIT_ARRAY$$Base   
UNDEFED   SHT$$INIT_ARRAY$$Limit  

[128 symbols]
